:100000000C9463000C948B000C948B000C948B006C
:100010000C948B000C948B000C948B000C948B0034
:100020000C948B000C948B000C948B000C948B0024
:100030000C948B000C948B000C948B000C948B0014
:100040000C9492030C948B000C9402040C94DC032B
:100050000C948B000C948B000C948B000C948B00F4
:100060000C948B000C948B000000000024002700EF
:100070002A0000000000250028002B0000000000DE
:1000800023002600290004040404040404040202DA
:100090000202020203030303030301020408102007
:1000A0004080010204081020010204081020000012
:1000B0000008000201000003040700000000000027
:1000C000000034041E0911241FBECFEFD8E0DEBFAC
:1000D000CDBF24E0AAE5B3E001C01D92AA33B20768
:1000E000E1F713E0A0E0B1E0E2E4F7E102C005903F
:1000F0000D92AA35B107D9F710E0C2E6D0E004C0EE
:100100002197FE010E947909C136D107C9F70E94E3
:1001100096040C94940B0C9400002FB7F8948091E3
:100120005F0390916003A0916103B09162032FBFC0
:1001300080936B0390936C03A0936D03B0936E0355
:10014000E0916303F09164030284F385E02D83E67C
:1001500093E0099597FF26C02FB7F89480915F032D
:1001600090916003A0916103B09162032FBF409111
:100170006B0350916C0360916D0370916E03841B4F
:10018000950BA60BB70B40916703509168036091E4
:10019000690370916A0384179507A607B70780F271
:1001A0008FEF9FEF08950895CF92DF92EF92FF9225
:1001B0000F931F93CF93DF936C017A018B01C0E003
:1001C000D0E0CE15DF0589F0D8016D918D01D60103
:1001D000ED91FC910190F081E02DC6010995892BEC
:1001E00011F47E0102C02196ECCFC701DF91CF91BF
:1001F0001F910F91FF90EF90DF90CF900895089599
:1002000080E090E00895FC01538D448D252F30E06F
:10021000842F90E0821B930B541710F0CF96089513
:1002200001970895FC01918D828D981761F0828D60
:10023000DF01A80FB11D5D968C91928D9F5F9F731A
:10024000928F90E008958FEF9FEF0895FC01918DBC
:10025000828D981731F0828DE80FF11D858D90E029
:1002600008958FEF9FEF0895FC01918D228D892FC6
:1002700090E0805C9F4F821B91098F7399270895AE
:1002800083E693E00E94340121E0892B09F420E009
:10029000822F0895FC01848DDF01A80FB11DA35AA0
:1002A000BF4F2C91848D90E001968F739927848F96
:1002B000A689B7892C93A089B1898C9180648C938D
:1002C000938D848D981306C00288F389E02D808178
:1002D0008F7D80830895EF92FF920F931F93CF93AA
:1002E000DF93EC0181E0888F9B8D8C8D981305C086
:1002F000E889F989808185FD24C0F62E0B8D10E0F8
:100300000F5F1F4F0F731127E02E8C8DE8120CC06A
:100310000FB607FCFACFE889F989808185FFF5CF10
:10032000CE010E944A01F1CF8B8DFE01E80FF11D35
:10033000E35AFF4FF0820B8FEA89FB89808180624C
:1003400007C0EE89FF896083E889F989808180642C
:10035000808381E090E0DF91CF911F910F91FF901A
:10036000EF900895CF93DF93EC01888D8823C9F037
:10037000EA89FB89808185FD05C0A889B9898C91AE
:1003800086FD0FC00FB607FCF5CF808185FFF2CF49
:10039000A889B9898C9185FFEDCFCE010E944A01D1
:1003A000E7CFDF91CF91089580E090E0892B29F08D
:1003B0000E94400181110C9400000895833081F067
:1003C00028F4813099F08230A1F008958730A9F0A7
:1003D0008830B9F08430D1F4809180008F7D03C0E3
:1003E000809180008F7780938000089584B58F7707
:1003F00002C084B58F7D84BD08958091B0008F7751
:1004000003C08091B0008F7D8093B0000895CF939A
:10041000DF93282F30E0F901E255FF4F8491F90175
:10042000E656FF4FD491F901EA57FF4FC491CC2310
:1004300091F081110E94DE01EC2FF0E0EE0FFF1F22
:10044000E458FF4FA591B491EC91ED2381E090E049
:1004500021F480E002C080E090E0DF91CF91089528
:100460001F93CF93DF93282F30E0F901E255FF4F20
:100470008491F901E656FF4FD491F901EA57FF4FF5
:10048000C491CC23C9F0162F81110E94DE01EC2FFC
:10049000F0E0EE0FFF1FEE58FF4FA591B4918FB71C
:1004A000F894111105C09C91ED2FE095E92302C04D
:1004B000EC91ED2BEC938FBFDF91CF911F910895BD
:1004C000CF93DF9390E0FC01E656FF4F2491FC01AF
:1004D000EA57FF4F8491882361F190E0880F991FBC
:1004E000FC01E859FF4FC591D491FC01EE58FF4F34
:1004F000A591B491611109C09FB7F89488812095A6
:1005000082238883EC912E230BC0623061F49FB765
:10051000F8943881822F809583238883EC912E2B49
:100520002C939FBF06C08FB7F894E8812E2B2883A9
:100530008FBFDF91CF910895CF93DF93EC01888136
:100540009981009711F00E94140A198218821D8265
:100550001C821B821A82DF91CF910895FC01808159
:1005600091810C94140A0E94760BFC012481358140
:10057000232B31F421E061157105A1F0FB0108C0C6
:10058000FC01808191816115710531F421E0FC014C
:100590008081882339F005C00E94840B21E0892BDB
:1005A00009F020E0822F08950F931F93CF93DF93DC
:1005B000EC0188819981009729F02A813B812617D7
:1005C000370788F48B016F5F7F4F0E94AC0A00975A
:1005D00061F0998388831B830A832C813D81232BBF
:1005E00011F4FC01108281E001C080E0DF91CF9125
:1005F0001F910F910895EF92FF920F931F93CF9346
:10060000DF93EC017B018A01BA010E94D4028111BF
:1006100004C0CE010E949C0207C01D830C83B70159
:10062000888199810E948D0BCE01DF91CF911F911E
:100630000F91FF90EF900895CF93DF93EC0184E04A
:10064000C033D80791F06091300470913104611586
:10065000710541F04091340450913504CE010E945F
:10066000FB0203C0CE010E949C02CE01DF91CF911C
:100670000895FC0111821082138212821582148265
:100680006115710551F0FB0101900020E9F73197E8
:10069000AF01461B570B0C94FB020895DF92EF92BB
:1006A000FF920F931F93CF93DF938C017B0168E33D
:1006B00071E00E943903D7011496CD91DC91159712
:1006C000209739F1C132D10510F0C1E2D0E0D70155
:1006D000ED91FC911197EC0FFD1FD08010826D9170
:1006E0007C916115710561F0FB0101900020E9F733
:1006F0003197AF01461B570BC8010E94FB0203C094
:10070000C8010E949C02F70180819181C80FD91F06
:10071000D882C801DF91CF911F910F91FF90EF9088
:10072000DF9008951F920F920FB60F9211242F930E
:100730003F938F939F93AF93BF9380915F0390916B
:100740006003A0916103B091620330915E0323E0E6
:10075000230F2D3720F40196A11DB11D05C026E8F9
:10076000230F0296A11DB11D20935E0380935F03AA
:1007700090936003A0936103B093620380915A0346
:1007800090915B03A0915C03B0915D030196A11D64
:10079000B11D80935A0390935B03A0935C03B093C5
:1007A0005D03BF91AF919F918F913F912F910F90DA
:1007B0000FBE0F901F9018951F920F920FB60F92B9
:1007C00011242F933F934F935F936F937F938F9356
:1007D0009F93AF93BF93EF93FF9383E693E00E94C1
:1007E0004A01FF91EF91BF91AF919F918F917F91BE
:1007F0006F915F914F913F912F910F900FBE0F908E
:100800001F9018951F920F920FB60F9211242F93DD
:100810008F939F93EF93FF93E0917303F091740391
:100820008081E0917903F0917A0382FD12C090817A
:1008300080917C038F5F8F7320917D03821751F02D
:10084000E0917C03F0E0ED59FC4F958F80937C03A1
:1008500001C08081FF91EF919F918F912F910F9017
:100860000FBE0F901F901895E3E6F3E013821282FB
:1008700088EE93E0A0E0B0E084839583A683B783FD
:100880008AE091E09183808385EC90E0958784876E
:1008900084EC90E09787868780EC90E0918B808B4A
:1008A00081EC90E0938B828B82EC90E0958B848B33
:1008B00086EC90E0978B868B118E128E138E148EA1
:1008C00068E371E080E394E00E94390368E371E03B
:1008D0008AE294E00E94390368E371E084E294E0E4
:1008E0000E94390368E371E08EE194E00E943903CD
:1008F00068E371E088E194E00E94390368E371E005
:1009000082E194E00E94390368E371E08CE094E0B6
:100910000E94390368E371E086E094E00E943903A5
:1009200068E371E080E094E00C943903CF93DF93A7
:10093000CDB7DEB72C970FB6F894DEBF0FBECDBF94
:10094000789484B5826084BD84B5816084BD85B5AA
:10095000826085BD85B5816085BD80916E008160B6
:1009600080936E001092810080918100826080935C
:10097000810080918100816080938100809180005E
:100980008160809380008091B10084608093B10089
:100990008091B00081608093B00080917A00846083
:1009A00080937A0080917A00826080937A008091AF
:1009B0007A00816080937A0080917A0080688093C9
:1009C0007A001092C100E0917303F091740382E009
:1009D0008083E0916F03F09170031082E0917103C6
:1009E000F091720380E1808310927B03E0917703A2
:1009F000F091780386E08083E0917503F0917603AF
:100A0000808180618083E0917503F091760380811D
:100A100088608083E0917503F0917603808180681F
:100A20008083E0917503F091760380818F7D8083D0
:100A30004DE150E068E171E083E693E00E94D4006C
:100A400042E050E066E371E083E693E00E94D40068
:100A500061E084E00E94600261E085E00E94600243
:100A600061E086E00E94600261E088E00E9460022E
:100A700061E089E00E94600261E08AE00E94600219
:100A800061E082E00E94600261E083E00E94600217
:100A900060E087E00E94600260E08BE00E946002FC
:100AA00060E08CE00E94600260E08DE00E946002E5
:100AB00060E08EE00E94600260E08FE00E946002D1
:100AC00060E080E10E94600260E081E10E946002DB
:100AD00083E693E00E943401181619060CF0D3C186
:100AE00068E371E0CE0101960E9439030E948D00F7
:100AF00097FD1EC08A309105D9F08F8318860D812D
:100B00001E810F5F1F4FB801CE0101960E94D402D3
:100B1000882361F329813A818D819E81BE01695FBD
:100B20007F4F820F931F0E948D0B1E830D83DECF9C
:100B300080913004909131040097C9F069817A81E5
:100B40006115710591F040913204509133042D816B
:100B50003E814217530748F00E948D0B8D819E8184
:100B6000909335048093340418C00E94140A89813C
:100B70009A8190933104809330048B819C8190936F
:100B80003304809332048D819E8190933504809349
:100B900034041A8219821C821B821E821D82CE019D
:100BA00001960E94AE0260E374E0CE0101960E94BD
:100BB0004E0369E371E0CE0101960E94B502182F41
:100BC000CE0101960E94AE02112321F08AE294E048
:100BD0000E941C0360E374E0CE0101960E944E0364
:100BE0006BE571E0CE0101960E94B502182FCE018F
:100BF00001960E94AE02112321F08AE294E00E9445
:100C00001C0360E374E0CE0101960E944E036DE781
:100C100071E0CE0101960E94B502182FCE01019617
:100C20000E94AE02112321F084E294E00E941C0392
:100C300060E374E0CE0101960E944E036FE971E01B
:100C4000CE0101960E94B502182FCE0101960E9496
:100C5000AE02112321F084E294E00E941C0360E3C1
:100C600074E0CE0101960E944E0361EC71E0CE016A
:100C700001960E94B502182FCE0101960E94AE0285
:100C8000112321F08EE194E00E941C0360E374E0E4
:100C9000CE0101960E944E0363EE71E0CE010196F3
:100CA0000E94B502182FCE0101960E94AE021123B8
:100CB00021F08EE194E00E941C0360E374E0CE0119
:100CC00001960E944E0365E072E0CE0101960E94FB
:100CD000B502182FCE0101960E94AE02112321F019
:100CE00088E194E00E941C0360E374E0CE01019669
:100CF0000E944E0367E272E0CE0101960E94B502A7
:100D0000182FCE0101960E94AE02112321F088E136
:100D100094E00E941C0360E374E0CE0101960E94FF
:100D20004E0369E472E0CE0101960E94B502182FCD
:100D3000CE0101960E94AE02112321F082E194E0DF
:100D40000E941C0360E374E0CE0101960E944E03F2
:100D50006BE672E0CE0101960E94B502182FCE011B
:100D600001960E94AE02112321F082E194E00E94DC
:100D70001C0360E374E0CE0101960E944E036DE80F
:100D800072E0CE0101960E94B502182FCE010196A5
:100D90000E94AE02112321F08CE094E00E941C031B
:100DA00060E374E0CE0101960E944E036FEA72E0A8
:100DB000CE0101960E94B502182FCE0101960E9425
:100DC000AE02112321F08CE094E00E941C0360E34A
:100DD00074E0CE0101960E944E0361ED72E0CE01F7
:100DE00001960E94B502182FCE0101960E94AE0214
:100DF000112321F086E094E00E941C0360E374E07C
:100E0000CE0101960E944E0363EF72E0CE0101967F
:100E10000E94B502182FCE0101960E94AE02112346
:100E200021F086E094E00E941C0360E374E0CE01B0
:100E300001960E944E0365E173E0CE0101960E9487
:100E4000B502182FCE0101960E94AE02112321F0A7
:100E500080E094E00E941C0360E374E0CE01019600
:100E60000E944E0367E373E0CE0101960E94B50233
:100E7000182FCE0101960E94AE02112321F080E0CE
:100E800094E00E941C036AE274E0CE0101960E9485
:100E90004E0369E371E0CE0101960E94B502811113
:100EA0000FC06AE274E0CE0107960E944E0369E328
:100EB00071E0CE0107960E94B50281110EC007C0F5
:100EC00087E00E940702892B61F711E00BC087E0E1
:100ED0000E94070211E0892B09F410E0CE01079669
:100EE0000E94AE02CE0101960E94AE02112311F0C3
:100EF00060E001C061E084E00E94300264E274E0DE
:100F0000CE0101960E944E036DE771E0CE0101967D
:100F10000E94B50281110FC064E274E0CE01079611
:100F20000E944E036DE771E0CE0107960E94B50264
:100F300081110EC007C08BE00E940702892B61F768
:100F400011E00BC08BE00E94070211E0892B09F42D
:100F500010E0CE0107960E94AE02CE0101960E94DB
:100F6000AE02112311F060E001C061E085E00E9453
:100F700030026EE174E0CE0101960E944E0361ECF6
:100F800071E0CE0101960E94B50281110FC06EE1A1
:100F900074E0CE0107960E944E0361EC71E0CE0131
:100FA00007960E94B50281110EC007C08CE00E9416
:100FB0000702892B61F711E00BC08CE00E94070249
:100FC00011E0892B09F410E0CE0107960E94AE02D1
:100FD000CE0101960E94AE02112311F060E001C023
:100FE00061E086E00E94300268E174E0CE01019683
:100FF0000E944E0365E072E0CE0101960E94B502A8
:1010000081110FC068E174E0CE0107960E944E0383
:1010100065E072E0CE0107960E94B50281110EC014
:1010200007C08DE00E940702892B61F711E00BC019
:101030008DE00E94070211E0892B09F410E0CE0137
:1010400007960E94AE02CE0101960E94AE021123C5
:1010500011F060E001C061E088E00E94300262E1CE
:1010600074E0CE0101960E944E0369E472E0CE0165
:1010700001960E94B50281110FC062E174E0CE01B9
:1010800007960E944E0369E472E0CE0107960E9423
:10109000B50281110EC007C08EE00E940702892BA5
:1010A00061F711E00BC08EE00E94070211E0892B6E
:1010B00009F410E0CE0107960E94AE02CE0101961F
:1010C0000E94AE02112311F060E001C061E089E0EE
:1010D0000E9430026CE074E0CE0101960E944E0343
:1010E0006DE872E0CE0101960E94B50281110FC039
:1010F0006CE074E0CE0107960E944E036DE872E04A
:10110000CE0107960E94B50281110EC007C08FE084
:101110000E940702892B61F711E00BC08FE00E944B
:10112000070211E0892B09F410E0CE0107960E9416
:10113000AE02CE0101960E94AE02112311F060E0D2
:1011400001C061E08AE00E94300266E074E0CE01F6
:1011500001960E944E0361ED72E0CE0101960E945D
:10116000B50281110FC066E074E0CE0107960E94BF
:101170004E0361ED72E0CE0107960E94B502811127
:101180000EC007C080E10E940702892B61F711E0C1
:101190000BC080E10E94070211E0892B09F410E0E6
:1011A000CE0107960E94AE02CE0101960E94AE02C9
:1011B000112311F060E001C061E082E00E94300282
:1011C00060E074E0CE0101960E944E0365E173E099
:1011D000CE0101960E94B50281110FC060E074E05B
:1011E000CE0107960E944E0365E173E0CE0107969B
:1011F0000E94B50281110EC007C081E10E94070262
:10120000892B61F711E00BC081E10E94070211E018
:10121000892B09F410E0CE0107960E94AE02CE01A0
:1012200001960E94AE02112311F060E001C061E05E
:1012300083E00E9430020E94D4014ACC80E094E016
:101240000E94AE0286E094E00E94AE028CE094E040
:101250000E94AE0282E194E00E94AE0288E194E036
:101260000E94AE028EE194E00E94AE0284E294E01D
:101270000E94AE028AE294E00E94AE0280E394E013
:101280000C94AE022F923F924F925F926F927F9298
:101290008F929F92AF92BF92CF92DF92EF92FF9286
:1012A0000F931F93CF93DF93CDB7DEB7CA1BDB0B32
:1012B0000FB6F894DEBF0FBECDBF09942A883988D7
:1012C00048885F846E847D848C849B84AA84B984DE
:1012D000C884DF80EE80FD800C811B81AA81B981EA
:1012E000CE0FD11D0FB6F894DEBF0FBECDBFED01FE
:1012F0000895EE0FFF1F0590F491E02D0994CF9310
:10130000DF938230910510F482E090E0E0913804A0
:10131000F091390420E030E0C0E0D0E0309711F1E6
:101320004081518148175907C0F04817590761F4A7
:1013300082819381209719F09B838A832BC090939D
:1013400039048093380426C02115310519F042175D
:10135000530718F49A01BE01DF01EF010280F38107
:10136000E02DDCCF2115310509F1281B390B243084
:10137000310590F412968D919C911397611571052A
:1013800021F0FB019383828304C0909339048093FE
:101390003804FD01329644C0FD01E20FF31F819332
:1013A0009193225031092D933C933AC020913604F9
:1013B00030913704232B41F4209102013091030135
:1013C00030933704209336042091000130910101BD
:1013D0002115310541F42DB73EB7409104015091DC
:1013E0000501241B350BE0913604F0913704E21718
:1013F000F307A0F42E1B3F0B2817390778F0AC0138
:101400004E5F5F4F2417350748F04E0F5F1F509314
:101410003704409336048193919302C0E0E0F0E0FA
:10142000CF01DF91CF9108950F931F93CF93DF9357
:10143000009709F48CC0FC0132971382128200914C
:101440003804109139040115110581F4208131818E
:10145000820F931F209136043091370428173907E3
:1014600079F5F0933704E093360471C0D80140E079
:1014700050E0AE17BF0750F412962D913C91139790
:10148000AD012115310509F1D901F3CF9D01DA0133
:101490003383228360817181860F971F82179307A0
:1014A00069F4EC0128813981260F371F2E5F3F4FE9
:1014B000318320838A819B8193838283452B29F406
:1014C000F0933904E093380442C01396FC93EE93F2
:1014D0001297ED01499159919E01240F351FE21792
:1014E000F30771F480819181840F951F0296119604
:1014F0009C938E938281938113969C938E931297E3
:10150000E0E0F0E0D80112968D919C91139700973E
:1015100019F0F8018C01F6CF8D919C9198012E5F06
:101520003F4F820F931F20913604309137042817C4
:10153000390769F4309729F410923904109238046D
:1015400002C0138212821093370400933604DF9195
:10155000CF911F910F910895A0E0B0E0E2EBFAE087
:101560000C944609EC01009721F4CB010E947F09FD
:10157000B8C0FC01E60FF71F9C0122503109E217A9
:10158000F30708F4ACC0D9010D911C91119706170F
:101590001707B0F00530110508F49FC0C801049783
:1015A0008617970708F499C002501109061B170BFC
:1015B000019311936D937C93CF010E94140A8DC007
:1015C0005B01A01AB10A4C01800E911EA091380453
:1015D000B091390440E050E0E12CF12C109709F46F
:1015E0004AC0A815B905D1F56D907C90119763019B
:1015F00082E0C80ED11CCA14DB0480F1A3014A1991
:101600005B096A0182E0C80ED11C1296BC90129749
:101610001396AC91B5E0CB16D10440F0B282A3830F
:1016200051834083D9016D937C930AC00E5F1F4F95
:10163000C301800F911FF90191838083EB2DFA2F55
:10164000E114F10431F0D7011396FC93EE93129755
:1016500044C0F0933904E09338043FC08D919C91CD
:1016600011974817590708F4AC017D0112960D90A7
:10167000BC91A02DB3CF809136049091370488158A
:101680009905E1F446175707C8F48091000190913D
:101690000101009741F48DB79EB74091040150912C
:1016A0000501841B950BE817F907C8F4F09337047C
:1016B000E0933604F901718360830FC0CB010E946F
:1016C0007F097C01009759F0A801BE010E947B0BA5
:1016D000CE010E94140AC70104C0CE0102C080E0FE
:1016E00090E0CDB7DEB7EEE00C94620981E090E0C7
:1016F000F8940C94940BFB01DC0102C001900D9254
:1017000041505040D8F70895FB01DC018D910190C4
:1017100080190110D9F3990B0895FB01DC010190A8
:101720000D920020E1F7089510E0C2E6D0E004C079
:10173000FE010E9479092196C336D107C9F7F894B2
:02174000FFCFD9
:1017420000003A048000000000006B01D400030195
:10175200B2013401120126015769666920456967A1
:1017620068742052656C617920426F617264205600
:101772006572302E32000D0A00525F312073776994
:10178200746368656420766961207765622072659A
:10179200717565737420746F203100525F3120734C
:1017A2007769746368656420766961207765622071
:1017B2007265717565737420746F203000525F32E8
:1017C2002073776974636865642076696120776540
:1017D20062207265717565737420746F20310052D6
:1017E2005F3220737769746368656420766961206B
:1017F200776562207265717565737420746F20302D
:1018020000525F3320737769746368656420766978
:101812006120776562207265717565737420746FDB
:10182200203100525F3320737769746368656420E6
:1018320076696120776562207265717565737420BF
:10184200746F203000525F34207377697463686567
:1018520064207669612077656220726571756573AF
:101862007420746F203100525F342073776974637F
:10187200686564207669612077656220726571759A
:1018820065737420746F203000525F35207377695E
:101892007463686564207669612077656220726589
:1018A200717565737420746F203100525F35207337
:1018B2007769746368656420766961207765622060
:1018C2007265717565737420746F203000525F36D3
:1018D200207377697463686564207669612077652F
:1018E20062207265717565737420746F20310052C5
:1018F2005F36207377697463686564207669612056
:10190200776562207265717565737420746F20301B
:1019120000525F3720737769746368656420766963
:101922006120776562207265717565737420746FCA
:10193200203100525F3720737769746368656420D1
:1019420076696120776562207265717565737420AE
:10195200746F203000525F38207377697463686552
:10196200642076696120776562207265717565739E
:101972007420746F203100525F382073776974636A
:101982006865642076696120776562207265717589
:0A19920065737420746F20300000AC
:107E0000112484B714BE81FFF0D085E080938100F7
:107E100082E08093C00088E18093C10086E0809377
:107E2000C20080E18093C4008EE0C9D0259A86E02C
:107E300020E33CEF91E0309385002093840096BBD3
:107E4000B09BFECF1D9AA8958150A9F7CC24DD24C4
:107E500088248394B5E0AB2EA1E19A2EF3E0BF2EE7
:107E6000A2D0813461F49FD0082FAFD0023811F036
:107E7000013811F484E001C083E08DD089C08234E0
:107E800011F484E103C0853419F485E0A6D080C0E4
:107E9000853579F488D0E82EFF2485D0082F10E0AE
:107EA000102F00270E291F29000F111F8ED06801E7
:107EB0006FC0863521F484E090D080E0DECF843638
:107EC00009F040C070D06FD0082F6DD080E0C81688
:107ED00080E7D80618F4F601B7BEE895C0E0D1E017
:107EE00062D089930C17E1F7F0E0CF16F0E7DF06D8
:107EF00018F0F601B7BEE89568D007B600FCFDCFD4
:107F0000A601A0E0B1E02C9130E011968C91119780
:107F100090E0982F8827822B932B1296FA010C0160
:107F200087BEE89511244E5F5F4FF1E0A038BF0790
:107F300051F7F601A7BEE89507B600FCFDCF97BE46
:107F4000E89526C08437B1F42ED02DD0F82E2BD052
:107F50003CD0F601EF2C8F010F5F1F4F84911BD097
:107F6000EA94F801C1F70894C11CD11CFA94CF0C13
:107F7000D11C0EC0853739F428D08EE10CD085E9AC
:107F80000AD08FE07ACF813511F488E018D01DD067
:107F900080E101D065CF982F8091C00085FFFCCF94
:107FA0009093C60008958091C00087FFFCCF809118
:107FB000C00084FD01C0A8958091C6000895E0E648
:107FC000F0E098E1908380830895EDDF803219F02E
:107FD00088E0F5DFFFCF84E1DECF1F93182FE3DFCA
:107FE0001150E9F7F2DF1F91089580E0E8DFEE27F6
:047FF000FF270994CA
:027FFE00040479
:0400000300007E007B
:00000001FF
