:100000000C9464000C948C000C948C000C948C0068
:100010000C948C000C948C000C948C000C948C0030
:100020000C948C000C948C000C948C000C948C0020
:100030000C948C000C948C000C948C000C948C0010
:100040000C9466050C948C000C9462080C94940833
:100050000C948C000C948C000C948C000C948C00F0
:100060000C948C000C948C0000000008000201002D
:100070000003040700000000000000000102040863
:100080001020408001020408102001020408102002
:10009000040404040404040402020202020203032E
:1000A00003030303000000002300260029000000D2
:1000B0000000250028002B0000000000240027007D
:1000C0002A00DB00C408E10011241FBECFEFD8E0F6
:1000D000DEBFCDBF14E0A0E0B1E0E6EAF9E102C086
:1000E00005900D92A836B107D9F725E0A8E6B4E04F
:1000F00001C01D92A831B207E1F710E0C6ECD0E0D4
:1001000004C02297FE010E94810AC23CD107C9F7B0
:100110000E944D0A0C94C60C0C94000026E040E0AE
:1001200052EC61E070E087E794E00E94EA0961E048
:100130008DE00E94CE0461E084E00E94CE0461E084
:1001400085E00E94CE0461E086E00E94CE0461E07A
:1001500088E00E94CE0461E089E00E94CE0461E064
:100160008AE00E94CE0461E082E00E94CE0461E059
:1001700083E00E94CE0460E087E00E94CE0460E04D
:100180008BE00E94CE0460E08CE00E94CE0460E030
:100190008DE00E94CE0460E08EE00E94CE0460E01C
:1001A0008FE00E94CE0460E080E10E94CE0460E017
:1001B00081E10C94CE0468E474E088E694E00C9449
:1001C0007A0788E694E00C940C071F93CF93DF9393
:1001D000CDB7DEB72C970FB6F894DEBF0FBECDBFFC
:1001E00087E794E00E940709181619063CF54AE0D3
:1001F00067E774E0CE0101960E94E406BE016F5FDE
:100200007F4F88E694E00E949007CE0101960E94FD
:100210000C0721E230E040E050E068E674E0CE01F7
:1002200001960E941D08BE016F5F7F4F87E794E033
:100230000E949206CE0101960E940C0721E230E056
:1002400040E050E068E674E0CE0107960E941D0889
:1002500066E071E0CE0107960E94FE07811113C08F
:1002600021E230E040E050E068E674E0CE01019623
:100270000E941D0866E071E0CE0101960E94FE0713
:1002800081110EC007C087E00E943D05892B41F710
:1002900011E00BC087E00E943D0511E0892B09F4B5
:1002A00010E0CE0101960E940C07CE0107960E9435
:1002B0000C07112311F061E001C060E084E00E94AE
:1002C000070521E230E040E050E068E674E0CE014E
:1002D00001960E941D0868E271E0CE0101960E941D
:1002E000FE07182FCE0101960E940C07112321F161
:1002F00061E085E00E94070561E08DE00E9407054E
:1003000068EE73E080E090E00E94DF0560E08DE041
:100310000E9407056AE471E087E794E00E94A40662
:1003200064E670E080E090E00E94DF0564E571E043
:1003300087E794E00E94A40621E230E040E050E02C
:1003400068E674E0CE0101960E941D0860E671E047
:10035000CE0101960E94FE07182FCE0101960E9441
:100360000C07112321F160E085E00E94070561E0A0
:100370008DE00E94070568EE73E080E090E00E9447
:10038000DF0560E08DE00E94070562E871E087E725
:1003900094E00E94A40664E670E080E090E00E9491
:1003A000DF056DE871E087E794E00E94A40621E292
:1003B00030E040E050E068E674E0CE0101960E9433
:1003C0001D086AE971E0CE0101960E94FE07182F10
:1003D000CE0101960E940C07112321F161E086E015
:1003E0000E94070561E08DE00E94070568EE73E05A
:1003F00080E090E00E94DF0560E08DE00E9407054C
:100400006CEB71E087E794E00E94A40664E670E07C
:1004100080E090E00E94DF0566EC71E087E794E001
:100420000E94A40621E230E040E050E068E674E07B
:10043000CE0101960E941D0862ED71E0CE01019689
:100440000E94FE07182FCE0101960E940C0711236F
:1004500021F160E086E00E94070561E08DE00E94E6
:10046000070568EE73E080E090E00E94DF0560E041
:100470008DE00E94070564EF71E087E794E00E9439
:10048000A40664E670E080E090E00E94DF056FEF74
:1004900071E087E794E00E94A40621E230E040E0AA
:1004A00050E068E674E0CE0101960E941D086CE001
:1004B00072E0CE0101960E94FE07182FCE01019630
:1004C0000E940C07112321F161E088E00E940705DA
:1004D00061E08DE00E94070568EE73E080E090E047
:1004E0000E94DF0560E08DE00E9407056EE272E089
:1004F00087E794E00E94A40664E670E080E090E064
:100500000E94DF0568E372E087E794E00E94A4069A
:1005100021E230E040E050E068E674E0CE01019670
:100520000E941D0864E472E0CE0101960E94FE075D
:10053000182FCE0101960E940C07112321F160E0D3
:1005400088E00E94070561E08DE00E94070568EEE3
:1005500073E080E090E00E94DF0560E08DE00E94A3
:10056000070566E672E087E794E00E94A40664E669
:1005700070E080E090E00E94DF0561E772E087E7CD
:1005800094E00E94A40621E230E040E050E068E6FA
:1005900074E0CE0101960E941D086EE772E0CE0164
:1005A00001960E94FE07182FCE0101960E940C07AB
:1005B000112321F161E089E00E94070561E08DE0EF
:1005C0000E94070568EE73E080E090E00E94DF057E
:1005D00060E08DE00E94070560EA72E087E794E042
:1005E0000E94A40664E670E080E090E00E94DF05CF
:1005F0006AEA72E087E794E00E94A40621E230E014
:1006000040E050E068E674E0CE0101960E941D08CB
:1006100066EB72E0CE0101960E94FE07182FCE0114
:1006200001960E940C07112321F160E089E00E94ED
:10063000070561E08DE00E94070568EE73E080E049
:1006400090E00E94DF0560E08DE00E94070568ED04
:1006500072E087E794E00E94A40664E670E080E020
:1006600090E00E94DF0563EE72E087E794E00E946D
:10067000A40621E230E040E050E068E674E0CE01FC
:1006800001960E941D0860EF72E0CE0101960E9463
:10069000FE07182FCE0101960E940C07112321F1AD
:1006A00061E08AE00E94070561E08DE00E94070595
:1006B00068EE73E080E090E00E94DF0560E08DE08E
:1006C0000E94070562E173E087E794E00E94A406B8
:1006D00064E670E080E090E00E94DF056CE173E08A
:1006E00087E794E00E94A40621E230E040E050E079
:1006F00068E674E0CE0101960E941D0868E273E08E
:10070000CE0101960E94FE07182FCE0101960E948D
:100710000C07112321F160E08AE00E94070561E0E7
:100720008DE00E94070568EE73E080E090E00E9493
:10073000DF0560E08DE00E9407056AE473E087E76B
:1007400094E00E94A40664E670E080E090E00E94DD
:10075000DF0565E573E087E794E00E94A40621E2E7
:1007600030E040E050E068E674E0CE0101960E947F
:100770001D0862E673E0CE0101960E94FE07182F65
:10078000CE0101960E940C07112321F161E082E065
:100790000E94070561E08DE00E94070568EE73E0A6
:1007A00080E090E00E94DF0560E08DE00E94070598
:1007B00064E873E087E794E00E94A40664E670E0D2
:1007C00080E090E00E94DF056EE873E087E794E048
:1007D0000E94A40621E230E040E050E068E674E0C8
:1007E000CE0101960E941D086AE973E0CE010196D0
:1007F0000E94FE07182FCE0101960E940C071123BC
:1008000021F160E082E00E94070561E08DE00E9436
:10081000070568EE73E080E090E00E94DF0560E08D
:100820008DE00E9407056CEB73E087E794E00E947F
:10083000A40664E670E080E090E00E94DF0567ECCB
:1008400073E087E794E00E94A40621E230E040E0F4
:1008500050E068E674E0CE0101960E941D0864ED48
:1008600073E0CE0101960E94FE07182FCE0101967B
:100870000E940C07112321F161E083E00E9407052B
:1008800061E08DE00E94070568EE73E080E090E093
:100890000E94DF0560E08DE00E94070566EF73E0CF
:1008A00087E794E00E94A40664E670E080E090E0B0
:1008B0000E94DF0560E074E087E794E00E94A406F0
:1008C00021E230E040E050E068E674E0CE010196BD
:1008D0000E941D086CE074E0CE0101960E94FE07A4
:1008E000182FCE0101960E940C07112321F160E020
:1008F00083E00E94070561E08DE00E94070568EE35
:1009000073E080E090E00E94DF0560E08DE00E94EF
:1009100007056EE274E087E794E00E94A40664E6AF
:1009200070E080E090E00E94DF0569E374E087E713
:1009300094E00E94A4062C960FB6F894DEBF0FBE7A
:10094000CDBFDF91CF911F910895833081F028F4BE
:10095000813099F08230A1F008958730A9F0883075
:10096000B9F08430D1F4809180008F7D03C08091F4
:1009700080008F7780938000089584B58F7702C0C0
:1009800084B58F7D84BD08958091B0008F7703C0BA
:100990008091B0008F7D8093B0000895CF93DF9356
:1009A00090E0FC01E458FF4F2491FC01E057FF4F19
:1009B0008491882349F190E0880F991FFC01E85445
:1009C000FF4FA591B49182559F4FFC01C591D491E1
:1009D0009FB7611108C0F8948C91209582238C9365
:1009E000888182230AC0623051F4F8948C91322FAE
:1009F000309583238C938881822B888304C0F8945C
:100A00008C91822B8C939FBFDF91CF9108950F9390
:100A10001F93CF93DF931F92CDB7DEB7282F30E01F
:100A2000F901E859FF4F8491F901E458FF4F1491FF
:100A3000F901E057FF4F04910023C9F0882321F00A
:100A400069830E94A5046981E02FF0E0EE0FFF1F8B
:100A5000E255FF4FA591B4919FB7F8948C91611125
:100A600003C01095812301C0812B8C939FBF0F90F1
:100A7000DF91CF911F910F910895CF93DF93282F8E
:100A800030E0F901E859FF4F8491F901E458FF4F34
:100A9000D491F901E057FF4FC491CC2391F081111B
:100AA0000E94A504EC2FF0E0EE0FFF1FEC55FF4F66
:100AB000A591B4912C912D2381E090E021F480E068
:100AC00002C080E090E0DF91CF9108951F920F92D5
:100AD0000FB60F9211242F933F938F939F93AF9351
:100AE000BF9380916F0490917004A0917104B091B4
:100AF000720430916E0423E0230F2D3720F4019609
:100B0000A11DB11D05C026E8230F0296A11DB11D30
:100B100020936E0480936F0490937004A0937104EB
:100B2000B09372048091730490917404A091750441
:100B3000B09176040196A11DB11D8093730490932A
:100B40007404A0937504B0937604BF91AF919F9104
:100B50008F913F912F910F900FBE0F901F9018957E
:100B60002FB7F89460916F047091700480917104B4
:100B7000909172042FBF08953FB7F8948091730449
:100B800090917404A0917504B091760426B5A89B49
:100B900005C02F3F19F00196A11DB11D3FBF66276B
:100BA000782F892F9A2F620F711D811D911D42E0B0
:100BB000660F771F881F991F4A95D1F70895CF9226
:100BC000DF92EF92FF92CF93DF936B017C010E9443
:100BD000BC05EB01C114D104E104F10489F00E94C9
:100BE0005C0A0E94BC056C1B7D0B683E734090F351
:100BF00081E0C81AD108E108F108C851DC4FEACFFA
:100C0000DF91CF91FF90EF90DF90CF90089578948F
:100C100084B5826084BD84B5816084BD85B5826001
:100C200085BD85B5816085BDEEE6F0E0808181609F
:100C30008083E1E8F0E0108280818260808380819F
:100C400081608083E0E8F0E0808181608083E1EB77
:100C5000F0E0808184608083E0EBF0E0808181605F
:100C60008083EAE7F0E08081846080838081826015
:100C700080838081816080838081806880831092FE
:100C8000C1000895CF92DF92EF92FF920F931F93CE
:100C9000CF93DF936C017A01EB01E60EF71E00E0C3
:100CA00010E0CE15DF0561F06991D601ED91FC9160
:100CB0000190F081E02DC6010995080F191FF1CFB1
:100CC000C801DF91CF911F910F91FF90EF90DF90BE
:100CD000CF9008956115710581F0DB010D90002022
:100CE000E9F7AD0141505109461B570BDC01ED916D
:100CF000FC910280F381E02D099480E090E008955A
:100D0000DC01ED91FC91DB0114964D915C911597FE
:100D10006D917C910280F381E02D099466E474E08A
:100D20000C946A060F931F93CF93DF93EC010E94FC
:100D300080068C01CE010E948E06800F911FDF91EC
:100D4000CF911F910F9108950F931F93CF93DF932E
:100D5000EC010E946A068C01CE010E948E06800F73
:100D6000911FDF91CF911F910F9108950F931F93C2
:100D7000CF93DF93EC010E94B005688779878A875B
:100D80009B87E881F9810680F781E02DCE010995E6
:100D900097FF15C00E94B005088519852A853B85F7
:100DA000601B710B820B930B0C811D812E813F8187
:100DB000601771078207930720F38FEF9FEFDF9192
:100DC000CF911F910F910895EF92FF920F931F9370
:100DD000CF93DF93EC018B01E42E68E474E00E9472
:100DE0007A07C8010E94B606FF24E7FCF09497FD3D
:100DF0000BC08E159F0541F0682FCE010E94EB07B6
:100E0000C8010E94B606F3CFCE01DF91CF911F91AA
:100E10000F91FF90EF900895FC01808191810C94D7
:100E20001D0BCF93DF93EC0188819981009711F01E
:100E30000E941D0B198218821D821C821B821A823D
:100E4000DF91CF9108950F931F93CF93DF93EC0120
:100E50008B016F5F7F4F888199810E94AC0B009757
:100E600031F0998388831B830A8381E001C080E08D
:100E7000DF91CF911F910F910895CF93DF93EC01F4
:100E800088819981892B29F08A819B818617970710
:100E900060F4CE010E942307882341F08C819D815C
:100EA000892B19F4E881F981108281E0DF91CF91DB
:100EB0000895EF92FF920F931F93CF93DF93EC016E
:100EC0007B018A01BA010E943D07811104C0CE0155
:100ED0000E94110707C01D830C83B7018881998187
:100EE0000E94880CCE01DF91CF911F910F91FF904E
:100EF000EF900895FC0111821082138212821582F4
:100F000014826115710559F0FB0101900020E9F789
:100F1000AF0141505109461B570B0C9459070895D6
:100F2000CF93DF93EC01FB018617970761F0608197
:100F300071816115710529F0448155810E9459071D
:100F400002C00E941107CE01DF91CF910895CF9387
:100F5000DF93EC016115710561F0FB010190002048
:100F6000E9F7AF0141505109461B570B0E94590741
:100F700002C00E941107CE01DF91CF910895EF9238
:100F8000FF920F931F93CF93DF93EC017B010C81B2
:100F90001D816115710511F480E016C041155105E0
:100FA00091F0040F151FB8010E943D078823A1F39B
:100FB000288139818C819D81B701820F931F0E9406
:100FC000880C1D830C8381E0DF91CF911F910F91DD
:100FD000FF90EF900895CF93DF9300D0CDB7DEB7A9
:100FE00069831A8241E050E0BE016F5F7F4F0E942B
:100FF000BF070F900F90DF91CF910895FC012481DE
:101000003581232B31F421E061157105A1F0FB013D
:1010100008C0FC01808191816115710531F421E0E6
:10102000FC018081882339F005C00E947F0C21E0FB
:10103000892B09F020E0822F0895BF92CF92DF9292
:10104000EF92FF920F931F93CF93DF936C017B017D
:10105000EA0189012417350720F48D2FE901042FB7
:10106000182F68E474E0C6010E947A07D70114962D
:101070008D919C911597C817D907C8F480179107CF
:1010800008F48C01D701ED91FC911197E00FF11F4D
:10109000B08010826D917C916C0F7D1FC6010E9403
:1010A000A707D701ED91FC91E00FF11FB082C601B7
:1010B000DF91CF911F910F91FF90EF90DF90CF9034
:1010C000BF9008951F920F920FB60F9211242F9385
:1010D0008F939F93EF93FF93E0918704F09188049F
:1010E0008081E0918D04F0918E0482FD12C0908188
:1010F000809190048F5F8F7320919104821751F03B
:10110000E0919004F0E0E958FB4F958F80939004B4
:1011100001C08081FF91EF919F918F912F910F904E
:101120000FBE0F901F9018951F920F920FB60F923F
:1011300011242F933F934F935F936F937F938F93DC
:101140009F93AF93BF93EF93FF9387E794E00E9441
:101150004209FF91EF91BF91AF919F918F917F9144
:101160006F915F914F913F912F910F900FBE0F9014
:101170001F90189587E794E00E94070921E0892BCA
:1011800009F420E0822F089510927A0410927904D5
:1011900088EE93E0A0E0B0E080937B0490937C0421
:1011A000A0937D04B0937E048BE594E09093780443
:1011B0008093770485EC90E090938404809383047B
:1011C00084EC90E0909386048093850480EC90E01A
:1011D000909388048093870481EC90E090938A0434
:1011E0008093890482EC90E090938C0480938B042C
:1011F00086EC90E090938E0480938D04109290047E
:101200001092910410929204109293040895FC019C
:10121000818D228D90E0805C9F4F821B91098F739E
:1012200099270895FC01918D828D981731F0828D58
:10123000E80FF11D858D90E008958FEF9FEF0895E1
:10124000FC01918D828D981761F0828DDF01A80FCE
:10125000B11D5D968C91928D9F5F9F73928F90E0F0
:1012600008958FEF9FEF08958AEB98E0892B49F05E
:1012700080E090E0892B29F00E94BA0881110C943B
:1012800000000895FC01848DDF01A80FB11DA35A51
:10129000BF4F2C91848D90E001968F739927848F96
:1012A000A689B7892C93A089B1898C9180648C938D
:1012B000938D848D981306C00288F389E02D808178
:1012C0008F7D80830895CF93DF93EC01888D8823F1
:1012D000C9F0EA89FB89808185FD05C0A889B989A3
:1012E0008C9186FD0FC00FB607FCF5CF808185FF7E
:1012F000F2CFA889B9898C9185FFEDCFCE010E94EC
:101300004209E7CFDF91CF910895CF92DF92FF920C
:101310000F931F93CF93DF931F92CDB7DEB76C016E
:1013200081E0D60158968C9358975B969C915B9779
:101330005C968C915C97981307C05096ED91FC9148
:101340005197808185FD2EC0F601038D10E00F5F5F
:101350001F4F0F731127F02EF601848DF81211C064
:101360000FB607FCF9CFD6015096ED91FC9151973D
:10137000808185FFF1CFC60169830E94420969819E
:10138000EBCF838DE80FF11DE35AFF4F6083D60149
:101390005B960C935B975296ED91FC9153978081ED
:1013A00080620CC0D6015696ED91FC9157976083F0
:1013B0005096ED91FC91519780818064808381E00B
:1013C00090E00F90DF91CF911F910F91FF90DF90F0
:1013D000CF900895BF92CF92DF92EF92FF92CF937A
:1013E000DF93EC016A017B01B22EE889F98982E082
:1013F0008083411581EE580761057105A1F060E019
:1014000079E08DE390E0A70196010E945D0A2150EA
:101410003109410951095695479537952795211569
:1014200080E1380798F0E889F989108260E874E86B
:101430008EE190E0A70196010E945D0A21503109DA
:10144000410951095695479537952795EC85FD85B6
:101450003083EE85FF852083188EEC89FD89B0826C
:10146000EA89FB89808180618083EA89FB898081A8
:1014700088608083EA89FB89808180688083EA892B
:10148000FB8980818F7D8083DF91CF91FF90EF90EA
:10149000DF90CF90BF90089508950E9407060E94A4
:1014A0004C0A0E948E00C4E3D9E00E94E500209718
:1014B000E1F30E943409F9CF0895A1E21A2EAA1B84
:1014C000BB1BFD010DC0AA1FBB1FEE1FFF1FA217F4
:1014D000B307E407F50720F0A21BB30BE40BF50BF1
:1014E000661F771F881F991F1A9469F7609570957A
:1014F000809590959B01AC01BD01CF010895EE0F41
:10150000FF1F0590F491E02D0994CF93DF93823073
:10151000910510F482E090E0E0911605F091170536
:1015200020E030E0A0E0B0E0309739F14081518117
:1015300048175907B8F04817590771F48281938109
:10154000109729F013969C938E9312972CC090932A
:1015500017058093160527C02115310531F0421774
:10156000530718F0A901DB0101C0EF019A01BD0189
:10157000DF010280F381E02DD7CF21153105F9F08D
:10158000281B390B2430310580F48A819B81611539
:10159000710521F0FB019383828304C090931705AA
:1015A00080931605FE01329644C0FE01E20FF31F40
:1015B0008193919322503109398328833AC0209135
:1015C000140530911505232B41F42091020130912F
:1015D00003013093150520931405209100013091EB
:1015E00001012115310541F42DB73EB740910401A9
:1015F00050910501241B350BE0911405F091150560
:10160000E217F307A0F42E1B3F0B2817390778F0D9
:10161000AC014E5F5F4F2417350748F04E0F5F1F38
:1016200050931505409314058193919302C0E0E017
:10163000F0E0CF01DF91CF910895CF93DF93009732
:1016400009F487C0FC01329713821282C0911605FB
:10165000D0911705209781F420813181280F391FFF
:1016600080911405909115058217930779F5F093F1
:101670001505E09314056DC0DE0120E030E0AE17E3
:10168000BF0750F412964D915C9113979D0141153F
:10169000510509F1DA01F3CFB383A283408151816F
:1016A000840F951F8A179B0771F48D919C91119758
:1016B000840F951F02969183808312968D919C9141
:1016C0001397938382832115310529F4F09317052D
:1016D000E09316053EC0D9011396FC93EE93129742
:1016E0004D915D91A40FB51FEA17FB0779F4808136
:1016F0009181840F951F0296D90111969C938E9328
:101700008281938113969C938E931297E0E0F0E090
:101710008A819B81009719F0FE01EC01F9CFCE017F
:10172000029628813981820F931F209114053091F0
:1017300015052817390769F4309729F41092170511
:101740001092160502C013821282D0931505C09321
:101750001405DF91CF910895A0E0B0E0E2EBFBE04B
:101760000C94930CEC01CB01209719F40E94850A8C
:10177000B8C0FE01E60FF71F9E0122503109E217A3
:10178000F30708F4ACC0D9010D911C91119706170D
:101790001707B8F00530110508F49FC0A8014450A0
:1017A00051094617570708F498C002501109061B43
:1017B000170B019311936D937C93CF010E941D0B26
:1017C0008CC05B01A01AB10A4E01800E911EA0913F
:1017D0001605B0911705612C712C60E070E0109730
:1017E00009F449C0A815B905C9F5ED90FC90119709
:1017F000670142E0C40ED11CCA14DB0478F1470132
:101800008A189B08640142E0C40ED11C1296BC9059
:1018100012971396AC91B5E0CB16D10440F0B2828A
:10182000A38391828082D9018D939C9309C00E5F1E
:101830001F4F0E0D1F1DF90111830083EB2DFA2F91
:101840006115710531F0DB011396FC93EE9312974D
:1018500044C0F0931705E09316053FC06D917C914D
:1018600011976616770608F43B01BD0112960D909C
:10187000BC91A02DB4CF6091140570911505681529
:101880007905E9F468167906D0F440910001509189
:1018900001014115510541F44DB75EB76091040156
:1018A00070910501461B570BE417F507C0F4F09340
:1018B0001505E0931405F901918380830EC00E9401
:1018C000850A7C01009759F0A801BE010E94760CA0
:1018D000CE010E941D0BC70104C0CE0102C080E0F2
:1018E00090E0CDB7DEB7EEE00C94AF0CFB01DC016D
:1018F00002C001900D9241505040D8F70895FB016D
:10190000DC018D91019080190110D9F3990B089594
:10191000FB01DC0101900D920020E1F708952F9268
:101920003F924F925F926F927F928F929F92AF926F
:10193000BF92CF92DF92EF92FF920F931F93CF93BC
:10194000DF93CDB7DEB7CA1BDB0B0FB6F894DEBF53
:101950000FBECDBF09942A88398848885F846E8479
:101960007D848C849B84AA84B984C884DF80EE80C3
:10197000FD800C811B81AA81B981CE0FD11D0FB6CC
:10198000F894DEBF0FBECDBFED01089510E0C6ECA8
:10199000D0E004C0FE010E94810A2296C83CD10713
:0619A000C9F7F894FFCF27
:1019A600000018058000525F312073776974636800
:1019B6006564207669612077656220726571756558
:1019C600737420746F203100525F3220737769740C
:1019D6006368656420766961207765622072657147
:1019E6007565737420746F20310072656C6179328D
:1019F600206F6E0072656C6179322B312B6F6E0031
:101A0600525F322073776974636865642076696112
:101A160020776562207265717565737420746F2016
:101A2600300072656C617932206F66660072656C93
:101A36006179322B302B6F666600525F33207377E5
:101A460069746368656420766961207765622072CF
:101A560065717565737420746F20310072656C61F1
:101A66007933206F6E0072656C6179332B312B6F81
:101A76006E00525F332073776974636865642076FD
:101A8600696120776562207265717565737420746B
:101A96006F20300072656C617933206F6666007264
:101AA600656C6179332B302B6F666600525F34208C
:101AB6007377697463686564207669612077656207
:101AC600207265717565737420746F2031007265BC
:101AD6006C617934206F6E0072656C6179342B31DC
:101AE6002B6F6E00525F3420737769746368656488
:101AF60020766961207765622072657175657374F9
:101B060020746F20300072656C617934206F6666D0
:101B16000072656C6179342B302B6F666600525FFC
:101B26003520737769746368656420766961207708
:101B36006562207265717565737420746F2031005B
:101B460072656C617935206F6E0072656C617935EE
:101B56002B312B6F6E00525F352073776974636883
:101B660065642076696120776562207265717565A6
:101B7600737420746F20300072656C617935206F44
:101B860066660072656C6179352B302B6F66660070
:101B9600525F36207377697463686564207669617D
:101BA60020776562207265717565737420746F2085
:101BB600310072656C617936206F6E0072656C61FA
:101BC60079362B312B6F6E00525F3620737769742E
:101BD6006368656420766961207765622072657145
:101BE6007565737420746F20300072656C61793688
:101BF600206F66660072656C6179362B302B6F66D6
:101C06006600525F3720737769746368656420766F
:101C160069612077656220726571756573742074D9
:101C26006F20310072656C617937206F6E007265C6
:101C36006C6179372B312B6F6E00525F37207377CB
:101C460069746368656420766961207765622072CD
:101C560065717565737420746F20300072656C61F0
:101C66007937206F66660072656C6179372B302B89
:101C76006F666600525F38207377697463686564BF
:101C86002076696120776562207265717565737467
:101C960020746F20310072656C617938206F6E0098
:101CA60072656C6179382B312B6F6E00525F38206C
:101CB6007377697463686564207669612077656205
:101CC600207265717565737420746F2030007265BB
:101CD6006C617938206F66660072656C6179382BA5
:101CE600302B6F6666000D0A006E616E00696E66C7
:101CF600006F7666002E0000000000850942060788
:081D060009200912096309001C
:00000001FF
