:100000000C9464000C948C000C948C000C948C0068
:100010000C948C000C948C000C948C000C948C0030
:100020000C948C000C948C000C948C000C948C0020
:100030000C948C000C948C000C948C000C948C0010
:100040000C943D0A0C948C000C9443080C94750895
:100050000C948C000C948C000C948C000C948C00F0
:100060000C948C000C948C0000000008000201002D
:100070000003040700000000000000000102040863
:100080001020408001020408102001020408102002
:10009000040404040404040402020202020203032E
:1000A00003030303000000002300260029000000D2
:1000B0000000250028002B0000000000240027007D
:1000C0002A00FB00A508310111241FBECFEFD8E0A4
:1000D000DEBFCDBF13E0A0E0B1E0E8E8FAE102C086
:1000E00005900D92A834B107D9F724E0A8E4B3E055
:1000F00001C01D92A832B207E1F710E0C6ECD0E0D3
:1001000004C02297FE010E94F20AC23CD107C9F73F
:100110000E942E0A0C94370D0C94000088E493E0A2
:100120000E94ED068EE493E00E94ED0684E593E0E4
:100130000E94ED068AE593E00E94ED0680E693E0DA
:100140000E94ED0686E693E00E94ED068CE693E0C1
:100150000E94ED0682E793E00E94ED0688E793E0B7
:100160000C94ED0626E040E052EC61E070E08EE792
:1001700093E00E94CB0961E084E00E949D0561E06C
:1001800085E00E949D0561E086E00E949D0561E09A
:1001900088E00E949D0561E089E00E949D0561E084
:1001A0008AE00E949D0561E082E00E949D0561E079
:1001B00083E00E949D0560E087E00E949D0560E06D
:1001C0008BE00E949D0560E08CE00E949D0560E050
:1001D0008DE00E949D0560E08EE00E949D0560E03C
:1001E0008FE00E949D0560E080E10E949D0560E037
:1001F00081E10C949D0568E273E088E793E00E943A
:100200005B0768E273E082E793E00E945B0768E2C5
:1002100073E08CE693E00E945B0768E273E086E699
:1002200093E00E945B0768E273E080E693E00E943F
:100230005B0768E273E08AE593E00E945B0768E28F
:1002400073E084E593E00E945B0768E273E08EE46C
:1002500093E00E945B0768E273E088E493E00C940B
:100260005B070C948E001F93CF93DF93CDB7DEB75F
:100270002C970FB6F894DEBF0FBECDBF8EE793E08C
:100280000E94E808181619060CF00CC24AE06EE746
:1002900073E0CE0101960E94C506BE016F5F7F4FDD
:1002A00088E793E00E947107CE0101960E94ED0657
:1002B00021E230E040E050E068E773E0CE010196D3
:1002C0000E94FE07BE016F5F7F4F8EE793E00E94A2
:1002D0008506CE0101960E94ED0621E230E040E065
:1002E00050E068E773E0CE0101960E94FE0766E0E9
:1002F00071E0CE0101960E94DF07182FCE01019612
:100300000E94ED061123D9F068E773E082E793E0DD
:100310000E94710721E230E040E050E062E773E0C4
:10032000CE0101960E94FE07BE016F5F7F4F8EE7F0
:1003300093E00E948506CE0101960E94ED0621E21F
:1003400030E040E050E068E773E0CE0101960E94A3
:10035000FE0768E271E0CE0101960E94DF07182FC8
:10036000CE0101960E94ED06112331F068E773E09B
:1003700082E793E00E94710721E230E040E050E024
:1003800068E773E0CE0101960E94FE076AE471E01F
:10039000CE0101960E94DF07182FCE0101960E9420
:1003A000ED06112331F068E773E08CE693E00E94DC
:1003B000710721E230E040E050E068E773E0CE01F1
:1003C00001960E94FE076CE671E0CE0101960E9444
:1003D000DF07182FCE0101960E94ED06112331F0A0
:1003E00068E773E08CE693E00E94710721E230E059
:1003F00040E050E068E773E0CE0101960E94FE07FE
:100400006EE871E0CE0101960E94DF07182FCE0141
:1004100001960E94ED06112331F068E773E086E64D
:1004200093E00E94710721E230E040E050E068E78D
:1004300073E0CE0101960E94FE0760EB71E0CE01F1
:1004400001960E94DF07182FCE0101960E94ED064B
:10045000112331F068E773E086E693E00E947107AC
:1004600021E230E040E050E068E773E0CE01019621
:100470000E94FE0762ED71E0CE0101960E94DF0747
:10048000182FCE0101960E94ED06112331F068E786
:1004900073E080E693E00E94710721E230E040E0E3
:1004A00050E068E773E0CE0101960E94FE0764EF1A
:1004B00071E0CE0101960E94DF07182FCE01019650
:1004C0000E94ED06112331F068E773E080E693E0C7
:1004D0000E94710721E230E040E050E068E773E0FD
:1004E000CE0101960E94FE0766E172E0CE01019600
:1004F0000E94DF07182FCE0101960E94ED061123FE
:1005000031F068E773E08AE593E00E94710721E229
:1005100030E040E050E068E773E0CE0101960E94D1
:10052000FE0768E372E0CE0101960E94DF07182FF4
:10053000CE0101960E94ED06112331F068E773E0C9
:100540008AE593E00E94710721E230E040E050E04C
:1005500068E773E0CE0101960E94FE076AE572E04B
:10056000CE0101960E94DF07182FCE0101960E944E
:10057000ED06112331F068E773E084E593E00E9413
:10058000710721E230E040E050E068E773E0CE011F
:1005900001960E94FE076CE772E0CE0101960E9470
:1005A000DF07182FCE0101960E94ED06112331F0CE
:1005B00068E773E084E593E00E94710721E230E090
:1005C00040E050E068E773E0CE0101960E94FE072C
:1005D0006EE972E0CE0101960E94DF07182FCE016E
:1005E00001960E94ED06112331F068E773E08EE476
:1005F00093E00E94710721E230E040E050E068E7BC
:1006000073E0CE0101960E94FE0760EC72E0CE011D
:1006100001960E94DF07182FCE0101960E94ED0679
:10062000112331F068E773E08EE493E00E947107D4
:1006300021E230E040E050E068E773E0CE0101964F
:100640000E94FE0762EE72E0CE0101960E94DF0773
:10065000182FCE0101960E94ED06112331F068E7B4
:1006600073E088E493E00E94710721E230E040E00B
:1006700050E068E773E0CE0101960E94FE0764E057
:1006800073E0CE0101960E94DF07182FCE0101967C
:100690000E94ED06112331F068E773E088E493E0EF
:1006A0000E94710721E230E040E050E062E773E031
:1006B000CE0107960E94FE0766E071E0CE01079624
:1006C0000E94DF07811113C021E230E040E050E0DA
:1006D00062E773E0CE0101960E94FE0766E071E0DA
:1006E000CE0101960E94DF0781110EC007C087E08E
:1006F0000E940C06892B41F711E00BC087E00E9495
:100700000C0611E0892B09F410E0CE0101960E943D
:10071000ED06CE0107960E94ED06112311F060E070
:1007200001C061E084E00E94D60521E230E040E0B3
:1007300050E06CE673E0CE0107960E94FE076AE483
:1007400071E0CE0107960E94DF07811113C021E2FC
:1007500030E040E050E06CE673E0CE0101960E948C
:10076000FE076AE471E0CE0101960E94DF07811165
:100770000EC007C08BE00E940C06892B41F711E0E8
:100780000BC08BE00E940C0611E0892B09F410E0ED
:10079000CE0101960E94ED06CE0107960E94ED065D
:1007A000112311F060E001C061E085E00E94D605F0
:1007B00021E230E040E050E066E673E0CE010796CB
:1007C0000E94FE076EE871E0CE0107960E94DF07E7
:1007D000811113C021E230E040E050E066E673E0B2
:1007E000CE0101960E94FE076EE871E0CE010196EF
:1007F0000E94DF0781110EC007C08CE00E940C062A
:10080000892B41F711E00BC08CE00E940C0611E02F
:10081000892B09F410E0CE0101960E94ED06CE016D
:1008200007960E94ED06112311F060E001C061E01F
:1008300086E00E94D60521E230E040E050E060E62C
:1008400073E0CE0107960E94FE0762ED71E0CE01D3
:1008500007960E94DF07811113C021E230E040E0DB
:1008600050E060E673E0CE0101960E94FE0762ED63
:1008700071E0CE0101960E94DF0781110EC007C012
:100880008DE00E940C06892B41F711E00BC08DE032
:100890000E940C0611E0892B09F410E0CE010196AC
:1008A0000E94ED06CE0107960E94ED06112311F07D
:1008B00060E001C061E088E00E94D60521E230E0FE
:1008C00040E050E06AE573E0CE0107960E94FE0723
:1008D00066E172E0CE0107960E94DF07811113C026
:1008E00021E230E040E050E06AE573E0CE0101969D
:1008F0000E94FE0766E172E0CE0101960E94DF07CA
:1009000081110EC007C08EE00E940C06892B41F7B2
:1009100011E00BC08EE00E940C0611E0892B09F457
:1009200010E0CE0101960E94ED06CE0107960E94CE
:10093000ED06112311F060E001C061E089E00E9442
:10094000D60521E230E040E050E064E573E0CE01FE
:1009500007960E94FE076AE572E0CE0107960E94A4
:10096000DF07811113C021E230E040E050E064E590
:1009700073E0CE0101960E94FE076AE572E0CE01A7
:1009800001960E94DF0781110EC007C08FE00E9410
:100990000C06892B41F711E00BC08FE00E940C067A
:1009A00011E0892B09F410E0CE0101960E94ED06BA
:1009B000CE0107960E94ED06112311F060E001C000
:1009C00061E08AE00E94D60521E230E040E050E09C
:1009D0006EE473E0CE0107960E94FE076EE972E0B6
:1009E000CE0107960E94DF07811113C021E230E09B
:1009F00040E050E06EE473E0CE0101960E94FE07F5
:100A00006EE972E0CE0101960E94DF0781110EC0EF
:100A100007C080E10E940C06892B41F711E00BC052
:100A200080E10E940C0611E0892B09F410E0CE0150
:100A300001960E94ED06CE0107960E94ED06112355
:100A400011F060E001C061E082E00E94D60521E281
:100A500030E040E050E068E473E0CE0107960E9489
:100A6000FE0762EE72E0CE0107960E94DF07811159
:100A700013C021E230E040E050E068E473E0CE01D2
:100A800001960E94FE0762EE72E0CE0101960E947E
:100A9000DF0781110EC007C081E10E940C06892B7F
:100AA00041F711E00BC081E10E940C0611E0892B97
:100AB00009F410E0CE0101960E94ED06CE010796E2
:100AC0000E94ED06112311F060E001C061E083E0B7
:100AD0000E94D6052C960FB6F894DEBF0FBECDBF90
:100AE000DF91CF911F910895833081F028F48130F8
:100AF00099F08230A1F008958730A9F08830B9F0DC
:100B00008430D1F4809180008F7D03C0809180007B
:100B10008F7780938000089584B58F7702C084B565
:100B20008F7D84BD08958091B0008F7703C0809140
:100B3000B0008F7D8093B0000895CF93DF9390E055
:100B4000FC01E458FF4F2491FC01E057FF4F8491D2
:100B5000882349F190E0880F991FFC01E854FF4F6A
:100B6000A591B49182559F4FFC01C591D4919FB737
:100B7000611108C0F8948C91209582238C93888110
:100B800082230AC0623051F4F8948C91322F309550
:100B900083238C938881822B888304C0F8948C9162
:100BA000822B8C939FBFDF91CF9108950F931F935A
:100BB000CF93DF931F92CDB7DEB7282F30E0F90136
:100BC000E859FF4F8491F901E458FF4F1491F9015E
:100BD000E057FF4F04910023C9F0882321F0698377
:100BE0000E9474056981E02FF0E0EE0FFF1FE255CF
:100BF000FF4FA591B4919FB7F8948C91611103C0F8
:100C00001095812301C0812B8C939FBF0F90DF91A2
:100C1000CF911F910F910895CF93DF93282F30E04C
:100C2000F901E859FF4F8491F901E458FF4FD4913D
:100C3000F901E057FF4FC491CC2391F081110E943C
:100C40007405EC2FF0E0EE0FFF1FEC55FF4FA59160
:100C5000B4912C912D2381E090E021F480E002C03A
:100C600080E090E0DF91CF910895CF92DF92EF92F4
:100C7000FF920F931F93CF93DF936C017A01EB01E7
:100C8000E60EF71E00E010E0CE15DF0561F0699179
:100C9000D601ED91FC910190F081E02DC6010995FE
:100CA000080F191FF1CFC801DF91CF911F910F914C
:100CB000FF90EF90DF90CF9008956115710581F05E
:100CC000DB010D900020E9F7AD0141505109461BB1
:100CD000570BDC01ED91FC910280F381E02D09942A
:100CE00080E090E00895DC01ED91FC91DB01149629
:100CF0004D915C9115976D917C910280F381E02D6F
:100D0000099466E273E00C945D060F931F93CF93F2
:100D1000DF93EC010E9473068C01CE010E948106D4
:100D2000800F911FDF91CF911F910F9108950F9325
:100D30001F93CF93DF93EC010E94870A688779871E
:100D40008A879B87E881F9810680F781E02DCE01B3
:100D5000099597FF15C00E94870A088519852A857D
:100D60003B85601B710B820B930B0C811D812E81C7
:100D70003F81601771078207930720F38FEF9FEF82
:100D8000DF91CF911F910F910895EF92FF920F93F2
:100D90001F93CF93DF93EC018B01E42E68E273E0A5
:100DA0000E945B07C8010E949706FF24E7FCF094AD
:100DB00097FD0BC08E159F0541F0682FCE010E9454
:100DC000CC07C8010E949706F3CFCE01DF91CF91E7
:100DD0001F910F91FF90EF900895FC018081918108
:100DE0000C948E0BCF93DF93EC018881998100974F
:100DF00011F00E948E0B198218821D821C821B82A8
:100E00001A82DF91CF9108950F931F93CF93DF93B1
:100E1000EC018B016F5F7F4F888199810E941D0CCF
:100E2000009731F0998388831B830A8381E001C096
:100E300080E0DF91CF911F910F910895CF93DF93C1
:100E4000EC0188819981892B29F08A819B81861701
:100E5000970760F4CE010E940407882341F08C813B
:100E60009D81892B19F4E881F981108281E0DF915D
:100E7000CF910895EF92FF920F931F93CF93DF933B
:100E8000EC017B018A01BA010E941E07811104C096
:100E9000CE010E94F20607C01D830C83B701888132
:100EA00099810E94F90CCE01DF91CF911F910F9192
:100EB000FF90EF900895FC0111821082138212823C
:100EC000158214826115710559F0FB010190002013
:100ED000E9F7AF0141505109461B570B0C943A07F3
:100EE0000895CF93DF93EC01FB018617970761F01C
:100EF000608171816115710529F0448155810E94DD
:100F00003A0702C00E94F206CE01DF91CF91089508
:100F1000CF93DF93EC016115710561F0FB01019046
:100F20000020E9F7AF0141505109461B570B0E94C1
:100F30003A0702C00E94F206CE01DF91CF910895D8
:100F4000EF92FF920F931F93CF93DF93EC017B01FE
:100F50000C811D816115710511F480E016C04115E9
:100F6000510591F0040F151FB8010E941E07882338
:100F7000A1F3288139818C819D81B701820F931F54
:100F80000E94F90C1D830C8381E0DF91CF911F91AA
:100F90000F91FF90EF900895CF93DF9300D0CDB7DE
:100FA000DEB769831A8241E050E0BE016F5F7F4F78
:100FB0000E94A0070F900F90DF91CF910895FC0140
:100FC00024813581232B31F421E061157105A1F0D5
:100FD000FB0108C0FC01808191816115710531F42C
:100FE00021E0FC018081882339F005C00E94F00CCB
:100FF00021E0892B09F020E0822F0895BF92CF9243
:10100000DF92EF92FF920F931F93CF93DF936C01C8
:101010007B01EA0189012417350720F48D2FE901AE
:10102000042F182F68E273E0C6010E945B07D70106
:1010300014968D919C911597C817D907C8F48017FD
:10104000910708F48C01D701ED91FC911197E00F05
:10105000F11FB08010826D917C916C0F7D1FC601D5
:101060000E948807D701ED91FC91E00FF11FB0823B
:10107000C601DF91CF911F910F91FF90EF90DF900C
:10108000CF90BF9008951F920F920FB60F92112428
:101090002F938F939F93EF93FF93E0918E03F091A3
:1010A0008F038081E0919403F091950382FD12C03B
:1010B0009081809197038F5F8F732091980382179F
:1010C00051F0E0919703F0E0E258FC4F958F809348
:1010D000970301C08081FF91EF919F918F912F9194
:1010E0000F900FBE0F901F9018951F920F920FB682
:1010F0000F9211242F933F934F935F936F937F939E
:101100008F939F93AF93BF93EF93FF938EE793E0FB
:101110000E942309FF91EF91BF91AF919F918F9111
:101120007F916F915F914F913F912F910F900FBEE3
:101130000F901F9018958EE793E00E94E80821E039
:10114000892B09F420E0822F0895109281031092D8
:10115000800388EE93E0A0E0B0E080938203909358
:101160008303A0938403B09385038BE393E0909370
:101170007F0380937E0385EC90E090938B038093B4
:101180008A0384EC90E090938D0380938C0380EC31
:1011900090E090938F0380938E0381EC90E0909386
:1011A00091038093900382EC90E09093930380935B
:1011B000920386EC90E090939503809394031092B1
:1011C0009703109298031092990310929A0308952E
:1011D000FC01818D228D90E0805C9F4F821B9109E4
:1011E0008F7399270895FC01918D828D981731F0A6
:1011F000828DE80FF11D858D90E008958FEF9FEFB0
:101200000895FC01918D828D981761F0828DDF0128
:10121000A80FB11D5D968C91928D9F5F9F73928FE9
:1012200090E008958FEF9FEF08958BE998E0892B68
:1012300049F080E090E0892B29F00E949B08811101
:101240000C9400000895FC01848DDF01A80FB11DEE
:10125000A35ABF4F2C91848D90E001968F739927EC
:10126000848FA689B7892C93A089B1898C918064D9
:101270008C93938D848D981306C00288F389E02D9A
:1012800080818F7D80830895CF93DF93EC01888DDB
:101290008823C9F0EA89FB89808185FD05C0A8897A
:1012A000B9898C9186FD0FC00FB607FCF5CF808100
:1012B00085FFF2CFA889B9898C9185FFEDCFCE014A
:1012C0000E942309E7CFDF91CF910895CF92DF925B
:1012D000FF920F931F93CF93DF931F92CDB7DEB78B
:1012E0006C0181E0D60158968C9358975B969C913F
:1012F0005B975C968C915C97981307C05096ED9124
:10130000FC915197808185FD2EC0F601038D10E080
:101310000F5F1F4F0F731127F02EF601848DF81207
:1013200011C00FB607FCF9CFD6015096ED91FC9194
:101330005197808185FFF1CFC60169830E942309FF
:101340006981EBCF838DE80FF11DE35AFF4F608376
:10135000D6015B960C935B975296ED91FC91539757
:10136000808180620CC0D6015696ED91FC91579712
:1013700060835096ED91FC915197808180648083C9
:1013800081E090E00F90DF91CF911F910F91FF903E
:10139000DF90CF900895BF92CF92DF92EF92FF92AD
:1013A000CF93DF93EC016A017B01B22EE889F989C2
:1013B00082E08083411581EE580761057105A1F037
:1013C00060E079E08DE390E0A70196010E94CE0AEB
:1013D000215031094109510956954795379527956F
:1013E000211580E1380798F0E889F989108260E8D2
:1013F00074E88EE190E0A70196010E94CE0A215088
:101400003109410951095695479537952795EC853E
:10141000FD853083EE85FF852083188EEC89FD895C
:10142000B082EA89FB89808180618083EA89FB89B7
:10143000808188608083EA89FB89808180688083DD
:10144000EA89FB8980818F7D8083DF91CF91FF9036
:10145000EF90DF90CF90BF90089508950E94930A77
:101460000E942D0A0E94B200C5E1D9E00E9433011A
:101470002097E1F30E941509F9CF1F920F920FB642
:101480000F9211242F933F938F939F93AF93BF930A
:1014900080911C0490911D04A0911E04B0911F0422
:1014A00030911B0423E0230F2D3720F40196A11D5A
:1014B000B11D05C026E8230F0296A11DB11D209382
:1014C0001B0480931C0490931D04A0931E04B093EE
:1014D0001F048091200490912104A0912204B091D6
:1014E00023040196A11DB11D809320049093210433
:1014F000A0932204B0932304BF91AF919F918F9149
:101500003F912F910F900FBE0F901F9018952FB7FE
:10151000F89460911C0470911D0480911E049091B8
:101520001F042FBF0895789484B5826084BD84B56C
:10153000816084BD85B5826085BD85B5816085BDCE
:10154000EEE6F0E0808181608083E1E8F0E01082E7
:10155000808182608083808181608083E0E8F0E028
:10156000808181608083E1EBF0E080818460808312
:10157000E0EBF0E0808181608083EAE7F0E0808149
:1015800084608083808182608083808181608083A9
:101590008081806880831092C1000895A1E21A2E94
:1015A000AA1BBB1BFD010DC0AA1FBB1FEE1FFF1F07
:1015B000A217B307E407F50720F0A21BB30BE40B57
:1015C000F50B661F771F881F991F1A9469F760959E
:1015D0007095809590959B01AC01BD01CF01089558
:1015E000EE0FFF1F0590F491E02D0994CF93DF9348
:1015F0008230910510F482E090E0E0912604F091B1
:10160000270420E030E0A0E0B0E0309739F14081DD
:10161000518148175907B8F04817590771F482816A
:101620009381109729F013969C938E9312972CC058
:10163000909327048093260427C02115310531F0AB
:101640004217530718F0A901DB0101C0EF019A010D
:10165000BD01DF010280F381E02DD7CF21153105D7
:10166000F9F0281B390B2430310580F48A819B81E5
:101670006115710521F0FB019383828304C090936F
:10168000270480932604FE01329644C0FE01E20F37
:10169000F31F8193919322503109398328833AC0F3
:1016A0002091240430912504232B41F42091020140
:1016B00030910301309325042093240420910001EC
:1016C000309101012115310541F42DB73EB740910C
:1016D000040150910501241B350BE0912404F09185
:1016E0002504E217F307A0F42E1B3F0B2817390738
:1016F00078F0AC014E5F5F4F2417350748F04E0F6E
:101700005F1F50932504409324048193919302C05A
:10171000E0E0F0E0CF01DF91CF910895CF93DF9328
:10172000009709F487C0FC01329713821282C0919E
:101730002604D0912704209781F420813181280F3D
:10174000391F80912404909125048217930779F51D
:10175000F0932504E09324046DC0DE0120E030E026
:10176000AE17BF0750F412964D915C9113979D01EF
:101770004115510509F1DA01F3CFB383A28340810A
:101780005181840F951F8A179B0771F48D919C914D
:101790001197840F951F02969183808312968D91E5
:1017A0009C911397938382832115310529F4F0933B
:1017B0002704E09326043EC0D9011396FC93EE93D0
:1017C00012974D915D91A40FB51FEA17FB0779F4AD
:1017D00080819181840F951F0296D90111969C9367
:1017E0008E938281938113969C938E931297E0E05F
:1017F000F0E08A819B81009719F0FE01EC01F9CF9E
:10180000CE01029628813981820F931F20912404F2
:10181000309125042817390769F4309729F410927C
:1018200027041092260402C013821282D09325044A
:10183000C0932404DF91CF910895A0E0B0E0E3E2EB
:10184000FCE00C94040DEC01CB01209719F40E94EC
:10185000F60AB8C0FE01E60FF71F9E0122503109BB
:10186000E217F30708F4ACC0D9010D911C91119750
:1018700006171707B8F00530110508F49FC0A80136
:10188000445051094617570708F498C002501109EF
:10189000061B170B019311936D937C93CF010E944C
:1018A0008E0B8CC05B01A01AB10A4E01800E911EF6
:1018B000A0912604B0912704612C712C60E070E0A7
:1018C000109709F449C0A815B905C9F5ED90FC9029
:1018D0001197670142E0C40ED11CCA14DB0478F1F1
:1018E00047018A189B08640142E0C40ED11C12967D
:1018F000BC9012971396AC91B5E0CB16D10440F092
:10190000B282A38391828082D9018D939C9309C076
:101910000E5F1F4F0E0D1F1DF90111830083EB2D6C
:10192000FA2F6115710531F0DB011396FC93EE93EC
:10193000129744C0F0932704E09326043FC06D91B2
:101940007C9111976616770608F43B01BD0112964B
:101950000D90BC91A02DB4CF60912404709125040A
:1019600068157905E9F468167906D0F4409100010C
:10197000509101014115510541F44DB75EB7609199
:10198000040170910501461B570BE417F507C0F4DD
:10199000F0932504E0932404F901918380830EC021
:1019A0000E94F60A7C01009759F0A801BE010E942E
:1019B000E70CCE010E948E0BC70104C0CE0102C00D
:1019C00080E090E0CDB7DEB7EEE00C94200DFB0197
:1019D000DC0102C001900D9241505040D8F70895AB
:1019E000FB01DC018D91019080190110D9F3990B55
:1019F0000895FB01DC0101900D920020E1F70895AC
:101A00002F923F924F925F926F927F928F929F920E
:101A1000AF92BF92CF92DF92EF92FF920F931F93FC
:101A2000CF93DF93CDB7DEB7CA1BDB0B0FB6F894AD
:101A3000DEBF0FBECDBF09942A88398848885F84ED
:101A40006E847D848C849B84AA84B984C884DF805E
:101A5000EE80FD800C811B81AA81B981CE0FD11D42
:101A60000FB6F894DEBF0FBECDBFED01089510E0B4
:101A7000C6ECD0E004C0FE010E94F20A2296C83CE7
:081A8000D107C9F7F894FFCF6C
:101A8800000028048000525F31207377697463680E
:101A98006564207669612077656220726571756575
:101AA800737420746F203100525F3120737769742A
:101AB8006368656420766961207765622072657164
:101AC8007565737420746F203000525F322073770D
:101AD800697463686564207669612077656220723D
:101AE80065717565737420746F203100525F322000
:101AF80073776974636865642076696120776562C5
:101B0800207265717565737420746F203000525FA0
:101B18003320737769746368656420766961207718
:101B28006562207265717565737420746F20310069
:101B3800525F3320737769746368656420766961DE
:101B480020776562207265717565737420746F20E3
:101B58003000525F34207377697463686564207657
:101B68006961207765622072657175657374207488
:101B78006F203100525F342073776974636865643D
:101B88002076696120776562207265717565737466
:101B980020746F203000525F352073776974636852
:101BA8006564207669612077656220726571756564
:101BB800737420746F203100525F35207377697415
:101BC8006368656420766961207765622072657153
:101BD8007565737420746F203000525F36207377F8
:101BE800697463686564207669612077656220722C
:101BF80065717565737420746F203100525F3620EB
:101C080073776974636865642076696120776562B3
:101C1800207265717565737420746F203000525F8F
:101C28003720737769746368656420766961207703
:101C38006562207265717565737420746F20310058
:101C4800525F3720737769746368656420766961C9
:101C580020776562207265717565737420746F20D2
:101C68003000525F38207377697463686564207642
:101C78006961207765622072657175657374207477
:101C88006F203100525F3820737769746368656428
:101C98002076696120776562207265717565737455
:101CA80020746F2030000D0A006E616E00696E6648
:101CB800006F7666002E000000000066093506E811
:081CC800080109F308440900BA
:00000001FF
